:1000000012C019C018C017C016C015C014C013C044
:1000100012C011C010C00FC00EC00DC00CC00BC06C
:100020000AC009C008C011241FBECFE5D4E0DEBF5E
:10003000CDBF1BD033C0E4CF12BE85E083BF20E02C
:1000400008B600FE03C02F5F81E088BF32B791E0A1
:10005000273009F090E081E0383A09F080E0892308
:1000600079F381E088BF13BE089584B3876084BBB1
:1000700085B3816085BBE0DF85B38E7F85BB85B3AB
:10008000826085BBD9DF85B38D7F85BB85B38460F6
:1000900085BBD2DF85B38B7F85BBEACFF894FFCFDA
:00000001FF
