:1000000012C019C018C017C016C015C014C013C044
:1000100012C011C010C00FC00EC00DC00CC00BC06C
:100020000AC009C008C011241FBECFE5D4E0DEBF5E
:10003000CDBF02D032C0E4CF84B3876084BB85B328
:10004000816085BB2FE78AE196E021508040904097
:10005000E1F700C0000085B38E7F85BB85B3826069
:1000600085BB2FE78AE196E0215080409040E1F780
:1000700000C0000085B38D7F85BB85B3846085BBE0
:100080002FE78AE196E0215080409040E1F700C0E0
:0E009000000085B38B7F85BBD2CFF894FFCFE5
:00000001FF
